{
  "_format": "hh-sol-artifact-1",
  "contractName": "Staking",
  "sourceName": "contracts/Staking.sol",
  "abi": [
    {
      "inputs": [
        {
          "internalType": "address",
          "name": "_stakingToken",
          "type": "address"
        },
        {
          "internalType": "address",
          "name": "_rewardToken",
          "type": "address"
        }
      ],
      "stateMutability": "nonpayable",
      "type": "constructor"
    },
    {
      "inputs": [
        {
          "internalType": "address",
          "name": "owner",
          "type": "address"
        }
      ],
      "name": "OwnableInvalidOwner",
      "type": "error"
    },
    {
      "inputs": [
        {
          "internalType": "address",
          "name": "account",
          "type": "address"
        }
      ],
      "name": "OwnableUnauthorizedAccount",
      "type": "error"
    },
    {
      "anonymous": false,
      "inputs": [
        {
          "indexed": true,
          "internalType": "address",
          "name": "previousOwner",
          "type": "address"
        },
        {
          "indexed": true,
          "internalType": "address",
          "name": "newOwner",
          "type": "address"
        }
      ],
      "name": "OwnershipTransferred",
      "type": "event"
    },
    {
      "inputs": [
        {
          "internalType": "address",
          "name": "account",
          "type": "address"
        }
      ],
      "name": "earned",
      "outputs": [
        {
          "internalType": "uint256",
          "name": "",
          "type": "uint256"
        }
      ],
      "stateMutability": "view",
      "type": "function"
    },
    {
      "inputs": [],
      "name": "getReward",
      "outputs": [],
      "stateMutability": "nonpayable",
      "type": "function"
    },
    {
      "inputs": [
        {
          "internalType": "address",
          "name": "",
          "type": "address"
        }
      ],
      "name": "lastUpdateTime",
      "outputs": [
        {
          "internalType": "uint256",
          "name": "",
          "type": "uint256"
        }
      ],
      "stateMutability": "view",
      "type": "function"
    },
    {
      "inputs": [],
      "name": "owner",
      "outputs": [
        {
          "internalType": "address",
          "name": "",
          "type": "address"
        }
      ],
      "stateMutability": "view",
      "type": "function"
    },
    {
      "inputs": [],
      "name": "renounceOwnership",
      "outputs": [],
      "stateMutability": "nonpayable",
      "type": "function"
    },
    {
      "inputs": [],
      "name": "rewardRate",
      "outputs": [
        {
          "internalType": "uint256",
          "name": "",
          "type": "uint256"
        }
      ],
      "stateMutability": "view",
      "type": "function"
    },
    {
      "inputs": [],
      "name": "rewardToken",
      "outputs": [
        {
          "internalType": "contract IERC20",
          "name": "",
          "type": "address"
        }
      ],
      "stateMutability": "view",
      "type": "function"
    },
    {
      "inputs": [
        {
          "internalType": "address",
          "name": "",
          "type": "address"
        }
      ],
      "name": "rewards",
      "outputs": [
        {
          "internalType": "uint256",
          "name": "",
          "type": "uint256"
        }
      ],
      "stateMutability": "view",
      "type": "function"
    },
    {
      "inputs": [
        {
          "internalType": "uint256",
          "name": "_rate",
          "type": "uint256"
        }
      ],
      "name": "setRewardRate",
      "outputs": [],
      "stateMutability": "nonpayable",
      "type": "function"
    },
    {
      "inputs": [
        {
          "internalType": "uint256",
          "name": "amount",
          "type": "uint256"
        }
      ],
      "name": "stake",
      "outputs": [],
      "stateMutability": "nonpayable",
      "type": "function"
    },
    {
      "inputs": [
        {
          "internalType": "address",
          "name": "",
          "type": "address"
        }
      ],
      "name": "stakedAmounts",
      "outputs": [
        {
          "internalType": "uint256",
          "name": "",
          "type": "uint256"
        }
      ],
      "stateMutability": "view",
      "type": "function"
    },
    {
      "inputs": [],
      "name": "stakingToken",
      "outputs": [
        {
          "internalType": "contract IERC20",
          "name": "",
          "type": "address"
        }
      ],
      "stateMutability": "view",
      "type": "function"
    },
    {
      "inputs": [
        {
          "internalType": "address",
          "name": "newOwner",
          "type": "address"
        }
      ],
      "name": "transferOwnership",
      "outputs": [],
      "stateMutability": "nonpayable",
      "type": "function"
    },
    {
      "inputs": [],
      "name": "withdraw",
      "outputs": [],
      "stateMutability": "nonpayable",
      "type": "function"
    }
  ],
  "bytecode": "0x60c060405260646001553480156200001657600080fd5b50604051620016943803806200169483398181016040528101906200003c919062000262565b33600073ffffffffffffffffffffffffffffffffffffffff168173ffffffffffffffffffffffffffffffffffffffff1603620000b25760006040517f1e4fbdf7000000000000000000000000000000000000000000000000000000008152600401620000a99190620002ba565b60405180910390fd5b620000c3816200013460201b60201c565b508173ffffffffffffffffffffffffffffffffffffffff1660808173ffffffffffffffffffffffffffffffffffffffff16815250508073ffffffffffffffffffffffffffffffffffffffff1660a08173ffffffffffffffffffffffffffffffffffffffff16815250505050620002d7565b60008060009054906101000a900473ffffffffffffffffffffffffffffffffffffffff169050816000806101000a81548173ffffffffffffffffffffffffffffffffffffffff021916908373ffffffffffffffffffffffffffffffffffffffff1602179055508173ffffffffffffffffffffffffffffffffffffffff168173ffffffffffffffffffffffffffffffffffffffff167f8be0079c531659141344cd1fd0a4f28419497f9722a3daafe3b4186f6b6457e060405160405180910390a35050565b600080fd5b600073ffffffffffffffffffffffffffffffffffffffff82169050919050565b60006200022a82620001fd565b9050919050565b6200023c816200021d565b81146200024857600080fd5b50565b6000815190506200025c8162000231565b92915050565b600080604083850312156200027c576200027b620001f8565b5b60006200028c858286016200024b565b92505060206200029f858286016200024b565b9150509250929050565b620002b4816200021d565b82525050565b6000602082019050620002d16000830184620002a9565b92915050565b60805160a05161137b6200031960003960008181610725015281816108ed0152610cbc01526000818161067d015281816109a50152610b4f015261137b6000f3fe608060405234801561001057600080fd5b50600436106100e95760003560e01c806372f702f31161008c5780639e447fc6116100665780639e447fc614610226578063a694fc3a14610242578063f2fde38b1461025e578063f7c618c11461027a576100e9565b806372f702f3146101cc5780637b0a47ee146101ea5780638da5cb5b14610208576100e9565b80632ce9aead116100c85780632ce9aead1461017e5780633ccfd60b146101ae5780633d18b912146101b8578063715018a6146101c2576100e9565b80628cc262146100ee5780630700037d1461011e57806310c1c1031461014e575b600080fd5b61010860048036038101906101039190610e94565b610298565b6040516101159190610eda565b60405180910390f35b61013860048036038101906101339190610e94565b610434565b6040516101459190610eda565b60405180910390f35b61016860048036038101906101639190610e94565b61044c565b6040516101759190610eda565b60405180910390f35b61019860048036038101906101939190610e94565b610464565b6040516101a59190610eda565b60405180910390f35b6101b661047c565b005b6101c06107c8565b005b6101ca61098f565b005b6101d46109a3565b6040516101e19190610f54565b60405180910390f35b6101f26109c7565b6040516101ff9190610eda565b60405180910390f35b6102106109cd565b60405161021d9190610f7e565b60405180910390f35b610240600480360381019061023b9190610fc5565b6109f6565b005b61025c60048036038101906102579190610fc5565b610a08565b005b61027860048036038101906102739190610e94565b610c34565b005b610282610cba565b60405161028f9190610f54565b60405180910390f35b600080600360008473ffffffffffffffffffffffffffffffffffffffff1673ffffffffffffffffffffffffffffffffffffffff168152602001908152602001600020540361032757600460008373ffffffffffffffffffffffffffffffffffffffff1673ffffffffffffffffffffffffffffffffffffffff16815260200190815260200160002054905061042f565b6000600560008473ffffffffffffffffffffffffffffffffffffffff1673ffffffffffffffffffffffffffffffffffffffff16815260200190815260200160002054426103749190611021565b9050600460008473ffffffffffffffffffffffffffffffffffffffff1673ffffffffffffffffffffffffffffffffffffffff16815260200190815260200160002054670de0b6b3a764000060015483600360008873ffffffffffffffffffffffffffffffffffffffff1673ffffffffffffffffffffffffffffffffffffffff1681526020019081526020016000205461040d9190611055565b6104179190611055565b61042191906110c6565b61042b91906110f7565b9150505b919050565b60046020528060005260406000206000915090505481565b60036020528060005260406000206000915090505481565b60056020528060005260406000206000915090505481565b3361048681610298565b600460008373ffffffffffffffffffffffffffffffffffffffff1673ffffffffffffffffffffffffffffffffffffffff1681526020019081526020016000208190555042600560008373ffffffffffffffffffffffffffffffffffffffff1673ffffffffffffffffffffffffffffffffffffffff168152602001908152602001600020819055506000600360003373ffffffffffffffffffffffffffffffffffffffff1673ffffffffffffffffffffffffffffffffffffffff1681526020019081526020016000205490506000600460003373ffffffffffffffffffffffffffffffffffffffff1673ffffffffffffffffffffffffffffffffffffffff168152602001908152602001600020549050600082116105d8576040517f08c379a00000000000000000000000000000000000000000000000000000000081526004016105cf90611188565b60405180910390fd5b81600260008282546105ea9190611021565b925050819055506000600360003373ffffffffffffffffffffffffffffffffffffffff1673ffffffffffffffffffffffffffffffffffffffff168152602001908152602001600020819055506000600460003373ffffffffffffffffffffffffffffffffffffffff1673ffffffffffffffffffffffffffffffffffffffff168152602001908152602001600020819055507f000000000000000000000000000000000000000000000000000000000000000073ffffffffffffffffffffffffffffffffffffffff1663a9059cbb33846040518363ffffffff1660e01b81526004016106d69291906111a8565b6020604051808303816000875af11580156106f5573d6000803e3d6000fd5b505050506040513d601f19601f820116820180604052508101906107199190611209565b5060008111156107c3577f000000000000000000000000000000000000000000000000000000000000000073ffffffffffffffffffffffffffffffffffffffff1663a9059cbb33836040518363ffffffff1660e01b815260040161077e9291906111a8565b6020604051808303816000875af115801561079d573d6000803e3d6000fd5b505050506040513d601f19601f820116820180604052508101906107c19190611209565b505b505050565b336107d281610298565b600460008373ffffffffffffffffffffffffffffffffffffffff1673ffffffffffffffffffffffffffffffffffffffff1681526020019081526020016000208190555042600560008373ffffffffffffffffffffffffffffffffffffffff1673ffffffffffffffffffffffffffffffffffffffff168152602001908152602001600020819055506000600460003373ffffffffffffffffffffffffffffffffffffffff1673ffffffffffffffffffffffffffffffffffffffff168152602001908152602001600020549050600081111561098b576000600460003373ffffffffffffffffffffffffffffffffffffffff1673ffffffffffffffffffffffffffffffffffffffff168152602001908152602001600020819055507f000000000000000000000000000000000000000000000000000000000000000073ffffffffffffffffffffffffffffffffffffffff1663a9059cbb33836040518363ffffffff1660e01b81526004016109469291906111a8565b6020604051808303816000875af1158015610965573d6000803e3d6000fd5b505050506040513d601f19601f820116820180604052508101906109899190611209565b505b5050565b610997610cde565b6109a16000610d65565b565b7f000000000000000000000000000000000000000000000000000000000000000081565b60015481565b60008060009054906101000a900473ffffffffffffffffffffffffffffffffffffffff16905090565b6109fe610cde565b8060018190555050565b33610a1281610298565b600460008373ffffffffffffffffffffffffffffffffffffffff1673ffffffffffffffffffffffffffffffffffffffff1681526020019081526020016000208190555042600560008373ffffffffffffffffffffffffffffffffffffffff1673ffffffffffffffffffffffffffffffffffffffff1681526020019081526020016000208190555060008211610adc576040517f08c379a0000000000000000000000000000000000000000000000000000000008152600401610ad390611282565b60405180910390fd5b8160026000828254610aee91906110f7565b9250508190555081600360003373ffffffffffffffffffffffffffffffffffffffff1673ffffffffffffffffffffffffffffffffffffffff1681526020019081526020016000206000828254610b4491906110f7565b9250508190555060007f000000000000000000000000000000000000000000000000000000000000000073ffffffffffffffffffffffffffffffffffffffff166323b872dd3330866040518463ffffffff1660e01b8152600401610baa939291906112a2565b6020604051808303816000875af1158015610bc9573d6000803e3d6000fd5b505050506040513d601f19601f82011682018060405250810190610bed9190611209565b905080610c2f576040517f08c379a0000000000000000000000000000000000000000000000000000000008152600401610c2690611325565b60405180910390fd5b505050565b610c3c610cde565b600073ffffffffffffffffffffffffffffffffffffffff168173ffffffffffffffffffffffffffffffffffffffff1603610cae5760006040517f1e4fbdf7000000000000000000000000000000000000000000000000000000008152600401610ca59190610f7e565b60405180910390fd5b610cb781610d65565b50565b7f000000000000000000000000000000000000000000000000000000000000000081565b610ce6610e29565b73ffffffffffffffffffffffffffffffffffffffff16610d046109cd565b73ffffffffffffffffffffffffffffffffffffffff1614610d6357610d27610e29565b6040517f118cdaa7000000000000000000000000000000000000000000000000000000008152600401610d5a9190610f7e565b60405180910390fd5b565b60008060009054906101000a900473ffffffffffffffffffffffffffffffffffffffff169050816000806101000a81548173ffffffffffffffffffffffffffffffffffffffff021916908373ffffffffffffffffffffffffffffffffffffffff1602179055508173ffffffffffffffffffffffffffffffffffffffff168173ffffffffffffffffffffffffffffffffffffffff167f8be0079c531659141344cd1fd0a4f28419497f9722a3daafe3b4186f6b6457e060405160405180910390a35050565b600033905090565b600080fd5b600073ffffffffffffffffffffffffffffffffffffffff82169050919050565b6000610e6182610e36565b9050919050565b610e7181610e56565b8114610e7c57600080fd5b50565b600081359050610e8e81610e68565b92915050565b600060208284031215610eaa57610ea9610e31565b5b6000610eb884828501610e7f565b91505092915050565b6000819050919050565b610ed481610ec1565b82525050565b6000602082019050610eef6000830184610ecb565b92915050565b6000819050919050565b6000610f1a610f15610f1084610e36565b610ef5565b610e36565b9050919050565b6000610f2c82610eff565b9050919050565b6000610f3e82610f21565b9050919050565b610f4e81610f33565b82525050565b6000602082019050610f696000830184610f45565b92915050565b610f7881610e56565b82525050565b6000602082019050610f936000830184610f6f565b92915050565b610fa281610ec1565b8114610fad57600080fd5b50565b600081359050610fbf81610f99565b92915050565b600060208284031215610fdb57610fda610e31565b5b6000610fe984828501610fb0565b91505092915050565b7f4e487b7100000000000000000000000000000000000000000000000000000000600052601160045260246000fd5b600061102c82610ec1565b915061103783610ec1565b925082820390508181111561104f5761104e610ff2565b5b92915050565b600061106082610ec1565b915061106b83610ec1565b925082820261107981610ec1565b915082820484148315176110905761108f610ff2565b5b5092915050565b7f4e487b7100000000000000000000000000000000000000000000000000000000600052601260045260246000fd5b60006110d182610ec1565b91506110dc83610ec1565b9250826110ec576110eb611097565b5b828204905092915050565b600061110282610ec1565b915061110d83610ec1565b925082820190508082111561112557611124610ff2565b5b92915050565b600082825260208201905092915050565b7f4e6f207374616b6520746f207769746864726177000000000000000000000000600082015250565b600061117260148361112b565b915061117d8261113c565b602082019050919050565b600060208201905081810360008301526111a181611165565b9050919050565b60006040820190506111bd6000830185610f6f565b6111ca6020830184610ecb565b9392505050565b60008115159050919050565b6111e6816111d1565b81146111f157600080fd5b50565b600081519050611203816111dd565b92915050565b60006020828403121561121f5761121e610e31565b5b600061122d848285016111f4565b91505092915050565b7f43616e6e6f74207374616b652030000000000000000000000000000000000000600082015250565b600061126c600e8361112b565b915061127782611236565b602082019050919050565b6000602082019050818103600083015261129b8161125f565b9050919050565b60006060820190506112b76000830186610f6f565b6112c46020830185610f6f565b6112d16040830184610ecb565b949350505050565b7f5472616e73666572206661696c65640000000000000000000000000000000000600082015250565b600061130f600f8361112b565b915061131a826112d9565b602082019050919050565b6000602082019050818103600083015261133e81611302565b905091905056fea2646970667358221220969bd9dea7fca6f30bf05cfc802190bd3896e36c7ee597877bab0709b0373f5464736f6c63430008140033",
  "linkReferences": {},
  "deployedLinkReferences": {}
}